:100000000C9434000C9451000C9451000C94510049
:100010000C9451000C9451000C9451000C9451001C
:100020000C9451000C9451000C9451000C9451000C
:100030000C9451000C9451000C9451000C945100FC
:100040000C9451000C9451000C9451000C945100EC
:100050000C9451000C9451000C9451000C945100DC
:100060000C9451000C94510011241FBECFEFD8E026
:10007000DEBFCDBF11E0A0E0B1E0E4E1FAE002C0F4
:1000800005900D92AA30B107D9F721E0AAE0B1E0BE
:1000900001C01D92AB30B207E1F70E9412020C942E
:1000A00008050C940000CF93DF93C82FD62F81E072
:1000B0000E94E2018C2F880F8E770E94E8018D2F1D
:1000C0000E94E80180E0DF91CF910C94E201FF9261
:1000D0000F931F93CF93DF93C82FF62E072F142F64
:1000E00081E00E94E2018C2F880F8E770E94E80148
:1000F000CF2DD02FCE01810F911D8C01C017D107BC
:1001000021F089910E94E801F9CF80E0DF91CF9141
:100110001F910F91FF900C94E201CF93C82F81E0C3
:100120000E94E2018C2F880F8E7780680E94E80180
:1001300080E00E94E801C82F80E00E94E2018C2F3D
:10014000CF91089560E082E10E94530060E083E176
:100150000E94530060E485E10C9453000F931F93B9
:10016000CF93DF93C82F162FD72F042F60E081E0A5
:100170000E94530063E884E10E9453006FE784E02B
:100180000E94530060E88AE00E945300402F612FD4
:100190007D2F89E00E9467006CE081E00E9453009F
:1001A0006C2F8DE00E945300C0E2D3E084E00E94F7
:1001B0008D00807339F42197C9F7DF91CF911F919A
:1001C0000F91089581E0F9CFCF93DF930F92CDB7D0
:1001D000DEB782E5898341E0BE016F5F7F4F87E82C
:1001E0000E94AE000F90DF91CF910895FF920F9380
:1001F0001F93CF93DF938C01F62EEA0160E081E03C
:100200000E9453006DE381E10E94530060E087E0AB
:100210000E94530060E88AE00E94530063E081E09E
:100220000E9453004F2DB80189E00E94670004EF3F
:1002300011E087E00E948D0085FF13C060E081E03F
:100240000E94530082E20E948D00888381E20E9416
:100250008D00898381E0DF91CF911F910F91FF90F5
:1002600008950150110929F760E081E00E945300D0
:1002700080E0F1CF8F929F92AF92BF92CF92DF92A8
:10028000EF92FF920F931F93CF93DF93CDB7DEB71B
:100290002D970FB6F894DEBF0FBECDBF60E88EE09D
:1002A0000E94530083E990E29D878C8742E0BE0163
:1002B000645F7F4F80E80E94AE008EE00E948D0058
:1002C00085FF6AC083E9898380E78A836E0183E0C2
:1002D000C80ED11CFE0131967F018E01085F1F4FB1
:1002E0005F01480189E00E948D00F60181936F0152
:1002F000E017F107B9F7A40167E0C5010E94F60015
:10030000882309F449C04701F9E08F0E911C81E070
:10031000C82E81E0D82E8E01065F1F4FF701819114
:100320007F011F928F93DF92CF921F930F930E94B2
:100330003702B80182E00E9402020F900F900F90E6
:100340000F900F900F90E814F90441F766E071E008
:1003500082E00E94020249E0B50180E80E94AE00FE
:100360008823D1F089E00E948D001F928F93DF9245
:10037000CF921F930F930E943702B80182E00E9430
:10038000020266E071E082E00E9402020F900F908C
:100390000F900F900F900F902D960FB6F894DEBF30
:1003A0000FBECDBFDF91CF911F910F91FF90EF90C6
:1003B000DF90CF90BF90AF909F908F90089581E590
:1003C0008CBD0895882311F02A9808952A9A0895DB
:1003D0008EBD0DB407FEFDCF8DB58F778DBD8EB56B
:1003E000089587E690E09093C5008093C400E1EC07
:1003F000F0E0808188608083E2ECF0E080818660BC
:1004000080830895FB019B01280F311DE217F3073C
:1004100041F08091C00085FFFCCF81918093C600A0
:10042000F5CF089584B18C6284B92498529A0E94C1
:10043000F1010E94DF015A9A80E69AEEFC013197A1
:10044000F1F70197F1F75A980E94A200C0E6DAEEA0
:100450000E94E4008823E1F30E943A015A9ACE01F7
:100460000197F1F7CE010197F1F75A98F1CFAEE07D
:10047000B0E0EDE3F2E00C94DF040D891E8986E024
:100480008C831A8309838FEF9FE79E838D83AE0150
:10049000475E5F4F6F89788DCE0101960E945A02A8
:1004A0002F813885020F131FF80110822E96E4E089
:1004B0000C94FB04AFE0B0E0E0E6F2E00C94D10471
:1004C0007C013B018A01DC0117961C921E92169753
:1004D00013968C9181FFBEC19AE0292EFE013196C0
:1004E0004F01D70113969C91F30193FD859193FFE2
:1004F00081913F01882309F444C1853239F493FD89
:10050000859193FF81913F01853229F4B70190E0F5
:100510000E944304E6CFB12C412C512CBFE1B5150C
:1005200038F08B3209F188F4803201F1833221F105
:1005300057FC3AC020ED280F2A3040F556FE1FC068
:10054000B29C200D1124B22E06C08D3291F0803362
:1005500079F7689450F8F30193FD859193FF8191A9
:100560003F018111DBCF20C0689451F8689452F8A4
:10057000F2CF689453F8EFCF689454F8ECCF429CD4
:10058000200D1124422E689455F8E5CF8E3229F4BF
:1005900056FCF7C0689456F8DECF8C3619F4689490
:1005A00057F8D9CF8836B9F2982F9F7D955493305C
:1005B000C0F08336A1F18337C1F1833509F05BC008
:1005C000D801CD90DD908D016B2D70E056FC02C0FE
:1005D0006FEF7FEFC6010E942D045C01689457F80D
:1005E0000AC00C5F1F4FEFE3E983AA24A394B12C48
:1005F0006401E89457F853FC04C04A141B0409F042
:1006000018F5342CA114B10431F5332009F469CF65
:10061000B70180E290E00E9443043A94F6CFD801FB
:100620008C9189830E5F1F4FE0CFF801C190D1906C
:100630008F016B2D70E056FC02C06FEF7FEFC6019B
:100640000E9438045C01D5CFB70180E290E00E949F
:1006500043044A94D2CFF60157FC859157FE81910D
:100660006F01B70190E00E94430431103A94B1E069
:10067000AB1AB108C7CF843619F0893609F071C0BA
:10068000F80157FE67C061917191819191918F013D
:10069000E52DEF76DE2E97FF09C090958095709539
:1006A00061957F4F8F4F9F4F6894D7F82AE030E0D5
:1006B000A4010E947304C82EC818AC2C5D2CD6FE71
:1006C0000CC0E89450F8CB1440F4D4FE05C0D2FC22
:1006D00003C05D2D5E7E552EAB2C54FE93C0FE01F3
:1006E000EC0DF11D8081803309F085C0652D697E98
:1006F000562E752D7870372E53FC93C050FE8DC04A
:10070000BC2CA41410F4B40CBA1854FE90C0B70159
:1007100080E390E00E94430452FE07C088E751FC4A
:1007200088E590E0B7010E944304CB1408F48BC025
:10073000CA94D12C8FEFC81AD80AC80CD91CD6017C
:100740008E916D01B70190E00E9443048C149D04CA
:10075000B1F75BCF61917191072E000C880B990B5B
:1007600096CFD52CE894D4F82AE0853729F1F52DD9
:10077000F97FDF2E8037A1F058F48835A1F08F364D
:10078000D1F0F701868197812F96E2E10C94ED0478
:100790008837B9F7D4FE02C06894D2F820E10CC0C3
:1007A0006894D4F8F7CF54FE03C02F2F2660D22EC2
:1007B00020E132E002C028E030E0F801D7FE15C0A9
:1007C00041915191619171914C875D876E877F87CF
:1007D0008F01A4016C857D858E859F850E947304A1
:1007E000C82EC818E894D7F868CF81919191AC01D0
:1007F00070E060E0E9CF52FC02C0A3947ACFA394EA
:10080000A39477CF852D867809F473CFF6CFB701FF
:1008100080E290E00E944304A394A414C0F3312C1E
:1008200074CF342C3A18A41408F46FCFF8CF852D68
:10083000867809F47ACF8BE251FE80E257FC8DE294
:10084000B70190E070CFB70180E390E00E944304CD
:10085000BA946BCF8FEF9FEF97CFFC01059061505B
:1008600070400110D8F7809590958E0F9F1F0895C6
:10087000FC016150704001900110D8F7809590956F
:100880008E0F9F1F08950F931F93CF93DF93182F01
:10089000092FEB018B8181FD09C01FEF0FEF812F25
:1008A000902FDF91CF911F910F91089582FF14C077
:1008B0002E813F818C819D81281739073CF4E88186
:1008C000F981CF0101969983888310838E819F815E
:1008D00001969F838E83E3CFE885F985812F099563
:1008E000892BA1F3DACFFA01AA27283051F1203160
:1008F00081F1E8946F936E7F6E5F7F4F8F4F9F4FB4
:10090000AF4FB1E03ED0B4E03CD0670F781F891FF5
:100910009A1FA11D680F791F8A1F911DA11D6A0FC3
:10092000711D811D911DA11D20D009F468943F9176
:100930002AE0269F11243019305D3193DEF6CF0175
:100940000895462F4770405D4193B3E00FD0C9F73B
:10095000F6CF462F4F70405D4A3318F0495D31FDA8
:100960004052419302D0A9F7EACFB4E0A6959795FB
:10097000879577956795BA95C9F7009761057105D1
:1009800008959B01AC010A2E06945795479537951B
:100990002795BA95C9F7620F731F841F951FA01D75
:1009A00008952F923F924F925F926F927F928F9213
:1009B0009F92AF92BF92CF92DF92EF92FF920F93EE
:1009C0001F93CF93DF93CDB7DEB7CA1BDB0B0FB6F8
:1009D000F894DEBF0FBECDBF09942A8839884888B5
:1009E0005F846E847D848C849B84AA84B984C8844B
:1009F000DF80EE80FD800C811B81AA81B981CE0F42
:100A0000D11D0FB6F894DEBF0FBECDBFED01089526
:040A1000F894FFCF88
:0A0A14000225303258000D0A0000E0
:00000001FF
